{
  "contractName": "SakeMaster",
  "abi": [
    {
      "inputs": [
        {
          "internalType": "contract SakeToken",
          "name": "_sake",
          "type": "address"
        },
        {
          "internalType": "address",
          "name": "_devaddr",
          "type": "address"
        },
        {
          "internalType": "uint256",
          "name": "_sakePerBlock",
          "type": "uint256"
        },
        {
          "internalType": "uint256",
          "name": "_startBlock",
          "type": "uint256"
        }
      ],
      "stateMutability": "nonpayable",
      "type": "constructor"
    },
    {
      "anonymous": false,
      "inputs": [
        {
          "indexed": true,
          "internalType": "address",
          "name": "user",
          "type": "address"
        },
        {
          "indexed": true,
          "internalType": "uint256",
          "name": "pid",
          "type": "uint256"
        },
        {
          "indexed": false,
          "internalType": "uint256",
          "name": "amount",
          "type": "uint256"
        }
      ],
      "name": "Deposit",
      "type": "event"
    },
    {
      "anonymous": false,
      "inputs": [
        {
          "indexed": true,
          "internalType": "address",
          "name": "user",
          "type": "address"
        },
        {
          "indexed": true,
          "internalType": "uint256",
          "name": "pid",
          "type": "uint256"
        },
        {
          "indexed": false,
          "internalType": "uint256",
          "name": "amount",
          "type": "uint256"
        }
      ],
      "name": "EmergencyWithdraw",
      "type": "event"
    },
    {
      "anonymous": false,
      "inputs": [
        {
          "indexed": true,
          "internalType": "address",
          "name": "previousOwner",
          "type": "address"
        },
        {
          "indexed": true,
          "internalType": "address",
          "name": "newOwner",
          "type": "address"
        }
      ],
      "name": "OwnershipTransferred",
      "type": "event"
    },
    {
      "anonymous": false,
      "inputs": [
        {
          "indexed": true,
          "internalType": "address",
          "name": "user",
          "type": "address"
        },
        {
          "indexed": true,
          "internalType": "uint256",
          "name": "pid",
          "type": "uint256"
        },
        {
          "indexed": false,
          "internalType": "uint256",
          "name": "amount",
          "type": "uint256"
        }
      ],
      "name": "Withdraw",
      "type": "event"
    },
    {
      "inputs": [],
      "name": "BETATEST_BLOCKNUM",
      "outputs": [
        {
          "internalType": "uint256",
          "name": "",
          "type": "uint256"
        }
      ],
      "stateMutability": "view",
      "type": "function",
      "constant": true
    },
    {
      "inputs": [],
      "name": "BONUSONE_MULTIPLIER",
      "outputs": [
        {
          "internalType": "uint256",
          "name": "",
          "type": "uint256"
        }
      ],
      "stateMutability": "view",
      "type": "function",
      "constant": true
    },
    {
      "inputs": [],
      "name": "BONUSTWO_MULTIPLIER",
      "outputs": [
        {
          "internalType": "uint256",
          "name": "",
          "type": "uint256"
        }
      ],
      "stateMutability": "view",
      "type": "function",
      "constant": true
    },
    {
      "inputs": [],
      "name": "BONUS_BLOCKNUM",
      "outputs": [
        {
          "internalType": "uint256",
          "name": "",
          "type": "uint256"
        }
      ],
      "stateMutability": "view",
      "type": "function",
      "constant": true
    },
    {
      "inputs": [],
      "name": "MINTEND_BLOCKNUM",
      "outputs": [
        {
          "internalType": "uint256",
          "name": "",
          "type": "uint256"
        }
      ],
      "stateMutability": "view",
      "type": "function",
      "constant": true
    },
    {
      "inputs": [],
      "name": "betaTestEndBlock",
      "outputs": [
        {
          "internalType": "uint256",
          "name": "",
          "type": "uint256"
        }
      ],
      "stateMutability": "view",
      "type": "function",
      "constant": true
    },
    {
      "inputs": [],
      "name": "bonusEndBlock",
      "outputs": [
        {
          "internalType": "uint256",
          "name": "",
          "type": "uint256"
        }
      ],
      "stateMutability": "view",
      "type": "function",
      "constant": true
    },
    {
      "inputs": [],
      "name": "devaddr",
      "outputs": [
        {
          "internalType": "address",
          "name": "",
          "type": "address"
        }
      ],
      "stateMutability": "view",
      "type": "function",
      "constant": true
    },
    {
      "inputs": [
        {
          "internalType": "address",
          "name": "",
          "type": "address"
        }
      ],
      "name": "lpTokenPID",
      "outputs": [
        {
          "internalType": "uint256",
          "name": "",
          "type": "uint256"
        }
      ],
      "stateMutability": "view",
      "type": "function",
      "constant": true
    },
    {
      "inputs": [],
      "name": "migrator",
      "outputs": [
        {
          "internalType": "contract IMigratorChef",
          "name": "",
          "type": "address"
        }
      ],
      "stateMutability": "view",
      "type": "function",
      "constant": true
    },
    {
      "inputs": [],
      "name": "mintEndBlock",
      "outputs": [
        {
          "internalType": "uint256",
          "name": "",
          "type": "uint256"
        }
      ],
      "stateMutability": "view",
      "type": "function",
      "constant": true
    },
    {
      "inputs": [],
      "name": "owner",
      "outputs": [
        {
          "internalType": "address",
          "name": "",
          "type": "address"
        }
      ],
      "stateMutability": "view",
      "type": "function",
      "constant": true
    },
    {
      "inputs": [
        {
          "internalType": "uint256",
          "name": "",
          "type": "uint256"
        }
      ],
      "name": "poolInfo",
      "outputs": [
        {
          "internalType": "contract IERC20",
          "name": "lpToken",
          "type": "address"
        },
        {
          "internalType": "uint256",
          "name": "allocPoint",
          "type": "uint256"
        },
        {
          "internalType": "uint256",
          "name": "lastRewardBlock",
          "type": "uint256"
        },
        {
          "internalType": "uint256",
          "name": "accSakePerShare",
          "type": "uint256"
        }
      ],
      "stateMutability": "view",
      "type": "function",
      "constant": true
    },
    {
      "inputs": [],
      "name": "renounceOwnership",
      "outputs": [],
      "stateMutability": "nonpayable",
      "type": "function"
    },
    {
      "inputs": [],
      "name": "sake",
      "outputs": [
        {
          "internalType": "contract SakeToken",
          "name": "",
          "type": "address"
        }
      ],
      "stateMutability": "view",
      "type": "function",
      "constant": true
    },
    {
      "inputs": [],
      "name": "sakePerBlock",
      "outputs": [
        {
          "internalType": "uint256",
          "name": "",
          "type": "uint256"
        }
      ],
      "stateMutability": "view",
      "type": "function",
      "constant": true
    },
    {
      "inputs": [],
      "name": "startBlock",
      "outputs": [
        {
          "internalType": "uint256",
          "name": "",
          "type": "uint256"
        }
      ],
      "stateMutability": "view",
      "type": "function",
      "constant": true
    },
    {
      "inputs": [],
      "name": "totalAllocPoint",
      "outputs": [
        {
          "internalType": "uint256",
          "name": "",
          "type": "uint256"
        }
      ],
      "stateMutability": "view",
      "type": "function",
      "constant": true
    },
    {
      "inputs": [
        {
          "internalType": "address",
          "name": "newOwner",
          "type": "address"
        }
      ],
      "name": "transferOwnership",
      "outputs": [],
      "stateMutability": "nonpayable",
      "type": "function"
    },
    {
      "inputs": [
        {
          "internalType": "uint256",
          "name": "",
          "type": "uint256"
        },
        {
          "internalType": "address",
          "name": "",
          "type": "address"
        }
      ],
      "name": "userInfo",
      "outputs": [
        {
          "internalType": "uint256",
          "name": "amount",
          "type": "uint256"
        },
        {
          "internalType": "uint256",
          "name": "rewardDebt",
          "type": "uint256"
        }
      ],
      "stateMutability": "view",
      "type": "function",
      "constant": true
    },
    {
      "inputs": [],
      "name": "poolLength",
      "outputs": [
        {
          "internalType": "uint256",
          "name": "",
          "type": "uint256"
        }
      ],
      "stateMutability": "view",
      "type": "function",
      "constant": true
    },
    {
      "inputs": [
        {
          "internalType": "uint256",
          "name": "_allocPoint",
          "type": "uint256"
        },
        {
          "internalType": "contract IERC20",
          "name": "_lpToken",
          "type": "address"
        },
        {
          "internalType": "bool",
          "name": "_withUpdate",
          "type": "bool"
        }
      ],
      "name": "add",
      "outputs": [],
      "stateMutability": "nonpayable",
      "type": "function"
    },
    {
      "inputs": [
        {
          "internalType": "uint256",
          "name": "_pid",
          "type": "uint256"
        },
        {
          "internalType": "uint256",
          "name": "_allocPoint",
          "type": "uint256"
        },
        {
          "internalType": "bool",
          "name": "_withUpdate",
          "type": "bool"
        }
      ],
      "name": "set",
      "outputs": [],
      "stateMutability": "nonpayable",
      "type": "function"
    },
    {
      "inputs": [
        {
          "internalType": "contract IMigratorChef",
          "name": "_migrator",
          "type": "address"
        }
      ],
      "name": "setMigrator",
      "outputs": [],
      "stateMutability": "nonpayable",
      "type": "function"
    },
    {
      "inputs": [
        {
          "internalType": "address",
          "name": "newOwner",
          "type": "address"
        }
      ],
      "name": "handoverSakeMintage",
      "outputs": [],
      "stateMutability": "nonpayable",
      "type": "function"
    },
    {
      "inputs": [
        {
          "internalType": "uint256",
          "name": "_pid",
          "type": "uint256"
        }
      ],
      "name": "migrate",
      "outputs": [],
      "stateMutability": "nonpayable",
      "type": "function"
    },
    {
      "inputs": [
        {
          "internalType": "uint256",
          "name": "_from",
          "type": "uint256"
        },
        {
          "internalType": "uint256",
          "name": "_to",
          "type": "uint256"
        }
      ],
      "name": "getMultiplier",
      "outputs": [
        {
          "internalType": "uint256",
          "name": "",
          "type": "uint256"
        }
      ],
      "stateMutability": "view",
      "type": "function",
      "constant": true
    },
    {
      "inputs": [
        {
          "internalType": "uint256",
          "name": "_pid",
          "type": "uint256"
        },
        {
          "internalType": "address",
          "name": "_user",
          "type": "address"
        }
      ],
      "name": "pendingSake",
      "outputs": [
        {
          "internalType": "uint256",
          "name": "",
          "type": "uint256"
        }
      ],
      "stateMutability": "view",
      "type": "function",
      "constant": true
    },
    {
      "inputs": [],
      "name": "massUpdatePools",
      "outputs": [],
      "stateMutability": "nonpayable",
      "type": "function"
    },
    {
      "inputs": [
        {
          "internalType": "uint256",
          "name": "_pid",
          "type": "uint256"
        }
      ],
      "name": "updatePool",
      "outputs": [],
      "stateMutability": "nonpayable",
      "type": "function"
    },
    {
      "inputs": [
        {
          "internalType": "uint256",
          "name": "_pid",
          "type": "uint256"
        },
        {
          "internalType": "uint256",
          "name": "_amount",
          "type": "uint256"
        }
      ],
      "name": "deposit",
      "outputs": [],
      "stateMutability": "nonpayable",
      "type": "function"
    },
    {
      "inputs": [
        {
          "internalType": "uint256",
          "name": "_pid",
          "type": "uint256"
        },
        {
          "internalType": "uint256",
          "name": "_amount",
          "type": "uint256"
        }
      ],
      "name": "withdraw",
      "outputs": [],
      "stateMutability": "nonpayable",
      "type": "function"
    },
    {
      "inputs": [
        {
          "internalType": "uint256",
          "name": "_pid",
          "type": "uint256"
        }
      ],
      "name": "emergencyWithdraw",
      "outputs": [],
      "stateMutability": "nonpayable",
      "type": "function"
    },
    {
      "inputs": [
        {
          "internalType": "address",
          "name": "_devaddr",
          "type": "address"
        }
      ],
      "name": "dev",
      "outputs": [],
      "stateMutability": "nonpayable",
      "type": "function"
    }
  ],
  "bytecode": "0x60806040526000600b553480156200001657600080fd5b506040516200220038038062002200833981810160405260808110156200003c57600080fd5b508051602082015160408301516060909301519192909160006200005f62000179565b600080546001600160a01b0319166001600160a01b0383169081178255604051929350917f8be0079c531659141344cd1fd0a4f28419497f9722a3daafe3b4186f6b6457e0908290a350600180546001600160a01b03199081166001600160a01b0387811691909117909255600280549091169185169190911790556006829055600c819055620000ff816188b86200017d602090811b6200171517901c565b6003819055506200013f6188b86200012b620186a0600c546200017d60201b620017151790919060201c565b6200017d60201b620017151790919060201c565b6004819055506200016b6188b86200012b62030d40600c546200017d60201b620017151790919060201c565b60055550620001df92505050565b3390565b600082820183811015620001d8576040805162461bcd60e51b815260206004820152601b60248201527f536166654d6174683a206164646974696f6e206f766572666c6f770000000000604482015290519081900360640190fd5b9392505050565b61201180620001ef6000396000f3fe608060405234801561001057600080fd5b50600436106102065760003560e01c8063715018a61161011a578063c4305576116100ad578063d49e77cd1161007c578063d49e77cd14610505578063e2bbb1581461050d578063ec7f0a7a14610530578063ef76885614610538578063f2fde38b1461054057610206565b8063c4305576146104c1578063c674532e146104ed578063c7cc54d0146104f5578063ca85fd35146104fd57610206565b80638dbb1e3a116100e95780638dbb1e3a1461042b57806393f1a40b1461044e5780639d6a9cca14610493578063a10959d2146104b957610206565b8063715018a6146103d15780637cd07e47146103d95780638d88a90e146103fd5780638da5cb5b1461042357610206565b80632ce666a51161019d57806348cd4cb11161016c57806348cd4cb11461035c57806351eb05a6146103645780635312ea8e14610381578063630b5ba11461039e57806364482f79146103a657610206565b80632ce666a51461030c57806333c49f7914610314578063441a3e701461031c578063454b06081461033f57610206565b80631aed6553116101d95780631aed6553146102a05780631eaaa045146102a857806323cf3118146102de57806327a1804f1461030457610206565b8063081e3eda1461020b5780630b945b7d146102255780631526fe271461024b57806317caf6f114610298575b600080fd5b610213610566565b60408051918252519081900360200190f35b6102136004803603602081101561023b57600080fd5b50356001600160a01b031661056c565b6102686004803603602081101561026157600080fd5b503561057e565b604080516001600160a01b0390951685526020850193909352838301919091526060830152519081900360800190f35b6102136105bf565b6102136105c5565b6102dc600480360360608110156102be57600080fd5b508035906001600160a01b03602082013516906040013515156105cb565b005b6102dc600480360360208110156102f457600080fd5b50356001600160a01b03166107c7565b610213610841565b610213610848565b61021361084e565b6102dc6004803603604081101561033257600080fd5b5080359060200135610854565b6102dc6004803603602081101561035557600080fd5b50356109a8565b610213610c04565b6102dc6004803603602081101561037a57600080fd5b5035610c0a565b6102dc6004803603602081101561039757600080fd5b5035610e44565b6102dc610f2d565b6102dc600480360360608110156103bc57600080fd5b50803590602081013590604001351515610f50565b6102dc611021565b6103e16110c3565b604080516001600160a01b039092168252519081900360200190f35b6102dc6004803603602081101561041357600080fd5b50356001600160a01b03166110d2565b6103e161113f565b6102136004803603604081101561044157600080fd5b508035906020013561114e565b61047a6004803603604081101561046457600080fd5b50803590602001356001600160a01b0316611297565b6040805192835260208301919091528051918290030190f35b6102dc600480360360208110156104a957600080fd5b50356001600160a01b03166112bb565b6103e161137c565b610213600480360360408110156104d757600080fd5b50803590602001356001600160a01b031661138b565b6102136114ed565b6102136114f3565b6102136114f9565b6103e16114fe565b6102dc6004803603604081101561052357600080fd5b508035906020013561150d565b610213611611565b610213611618565b6102dc6004803603602081101561055657600080fd5b50356001600160a01b031661161d565b60085490565b600a6020526000908152604090205481565b6008818154811061058b57fe5b600091825260209091206004909102018054600182015460028301546003909301546001600160a01b039092169350919084565b600b5481565b60045481565b6105d3611776565b6000546001600160a01b03908116911614610623576040805162461bcd60e51b81526020600482018190526024820152600080516020611f5c833981519152604482015290519081900360640190fd5b801561063157610631610f2d565b6001600160a01b0382166000908152600a60205260409020541561069c576040805162461bcd60e51b815260206004820152601960248201527f53616b654d61737465723a6475706c6963617465206164642e00000000000000604482015290519081900360640190fd5b6000600c5443116106af57600c546106b1565b435b600b549091506106c19085611715565b600b55604080516080810182526001600160a01b0394851680825260208083019788528284019485526000606084018181526008805460018101825581845295517ff3f7a9fe364faab93b216da50a3214154f22a0a2b415b23a84c8169e8b636ee3600490970296870180546001600160a01b03191691909b161790995598517ff3f7a9fe364faab93b216da50a3214154f22a0a2b415b23a84c8169e8b636ee485015594517ff3f7a9fe364faab93b216da50a3214154f22a0a2b415b23a84c8169e8b636ee584015596517ff3f7a9fe364faab93b216da50a3214154f22a0a2b415b23a84c8169e8b636ee6909201919091559354938252600a909452929092205550565b6107cf611776565b6000546001600160a01b0390811691161461081f576040805162461bcd60e51b81526020600482018190526024820152600080516020611f5c833981519152604482015290519081900360640190fd5b600780546001600160a01b0319166001600160a01b0392909216919091179055565b620186a081565b60055481565b60035481565b60006008838154811061086357fe5b6000918252602080832086845260098252604080852033865290925292208054600490920290920192508311156108d6576040805162461bcd60e51b81526020600482015260126024820152711dda5d1a191c985dce881b9bdd0819dbdbd960721b604482015290519081900360640190fd5b6108df84610c0a565b6000610919826001015461091364e8d4a5100061090d8760030154876000015461177a90919063ffffffff16565b906117d3565b90611815565b82549091506109289085611815565b80835560038401546109459164e8d4a510009161090d919061177a565b60018301556109543382611857565b825461096a906001600160a01b031633866119e5565b604080518581529051869133917ff279e6a1f5e320cca91135676d9cb6e44ca8a08c0b88342bcdb1144f6511b5689181900360200190a35050505050565b6007546001600160a01b03166109fc576040805162461bcd60e51b815260206004820152601460248201527336b4b3b930ba329d1037379036b4b3b930ba37b960611b604482015290519081900360640190fd5b600060088281548110610a0b57fe5b600091825260208083206004928302018054604080516370a0823160e01b81523095810195909552519195506001600160a01b0316939284926370a0823192602480840193829003018186803b158015610a6457600080fd5b505afa158015610a78573d6000803e3d6000fd5b505050506040513d6020811015610a8e57600080fd5b5051600754909150610aad906001600160a01b03848116911683611a37565b6007546040805163ce5494bb60e01b81526001600160a01b0385811660048301529151600093929092169163ce5494bb9160248082019260209290919082900301818787803b158015610aff57600080fd5b505af1158015610b13573d6000803e3d6000fd5b505050506040513d6020811015610b2957600080fd5b5051604080516370a0823160e01b815230600482015290519192506001600160a01b038316916370a0823191602480820192602092909190829003018186803b158015610b7557600080fd5b505afa158015610b89573d6000803e3d6000fd5b505050506040513d6020811015610b9f57600080fd5b50518214610be3576040805162461bcd60e51b815260206004820152600c60248201526b1b5a59dc985d194e8818985960a21b604482015290519081900360640190fd5b83546001600160a01b0319166001600160a01b039190911617909255505050565b600c5481565b600060088281548110610c1957fe5b9060005260206000209060040201905080600201544311610c3a5750610e41565b8054604080516370a0823160e01b815230600482015290516000926001600160a01b0316916370a08231916024808301926020929190829003018186803b158015610c8457600080fd5b505afa158015610c98573d6000803e3d6000fd5b505050506040513d6020811015610cae57600080fd5b5051905080610cc4575043600290910155610e41565b6000610cd483600201544361114e565b905080610ce957505043600290910155610e41565b6000610d14600b5461090d8660010154610d0e6006548761177a90919063ffffffff16565b9061177a565b6001546002549192506001600160a01b03908116916340c10f199116610d3b84600f6117d3565b6040518363ffffffff1660e01b815260040180836001600160a01b0316815260200182815260200192505050600060405180830381600087803b158015610d8157600080fd5b505af1158015610d95573d6000803e3d6000fd5b5050600154604080516340c10f1960e01b81523060048201526024810186905290516001600160a01b0390921693506340c10f19925060448082019260009290919082900301818387803b158015610dec57600080fd5b505af1158015610e00573d6000803e3d6000fd5b50505050610e2e610e238461090d64e8d4a510008561177a90919063ffffffff16565b600386015490611715565b6003850155505043600290920191909155505b50565b600060088281548110610e5357fe5b600091825260208083208584526009825260408085203386529092529220805460049092029092019250610ece576040805162461bcd60e51b815260206004820152601b60248201527f656d657267656e637957697468647261773a206e6f7420676f6f640000000000604482015290519081900360640190fd5b8054600080835560018301558254610ef0906001600160a01b031633836119e5565b604080518281529051859133917fbb757047c2b5f3974fe26b7c10f732e7bce710b0952a71082702781e62ae05959181900360200190a350505050565b60085460005b81811015610f4c57610f4481610c0a565b600101610f33565b5050565b610f58611776565b6000546001600160a01b03908116911614610fa8576040805162461bcd60e51b81526020600482018190526024820152600080516020611f5c833981519152604482015290519081900360640190fd5b8015610fb657610fb6610f2d565b610ff382610fed60088681548110610fca57fe5b906000526020600020906004020160010154600b5461181590919063ffffffff16565b90611715565b600b81905550816008848154811061100757fe5b906000526020600020906004020160010181905550505050565b611029611776565b6000546001600160a01b03908116911614611079576040805162461bcd60e51b81526020600482018190526024820152600080516020611f5c833981519152604482015290519081900360640190fd5b600080546040516001600160a01b03909116907f8be0079c531659141344cd1fd0a4f28419497f9722a3daafe3b4186f6b6457e0908390a3600080546001600160a01b0319169055565b6007546001600160a01b031681565b6002546001600160a01b0316331461111d576040805162461bcd60e51b81526020600482015260096024820152686465763a207775743f60b81b604482015290519081900360640190fd5b600280546001600160a01b0319166001600160a01b0392909216919091179055565b6000546001600160a01b031690565b60008060055483116111605782611164565b6005545b90506003548111611181576111798185611815565b915050611291565b6005548410611194576000915050611291565b60045481116111e0576003548410156111d1576111796111c46014610d0e6003548561181590919063ffffffff16565b600354610fed9087611815565b6111796014610d0e8387611815565b600354841015611233576111796112076002610d0e6004548561181590919063ffffffff16565b610fed6112266014610d0e60035460045461181590919063ffffffff16565b600354610fed9089611815565b8360035411158015611246575060045484105b15611282576111796112686002610d0e6004548561181590919063ffffffff16565b610fed6014610d0e8860045461181590919063ffffffff16565b6111796002610d0e8387611815565b92915050565b60096020908152600092835260408084209091529082529020805460019091015482565b6112c3611776565b6000546001600160a01b03908116911614611313576040805162461bcd60e51b81526020600482018190526024820152600080516020611f5c833981519152604482015290519081900360640190fd5b6001546040805163f2fde38b60e01b81526001600160a01b0384811660048301529151919092169163f2fde38b91602480830192600092919082900301818387803b15801561136157600080fd5b505af1158015611375573d6000803e3d6000fd5b5050505050565b6001546001600160a01b031681565b6000806008848154811061139b57fe5b600091825260208083208784526009825260408085206001600160a01b03898116875290845281862060049586029093016003810154815484516370a0823160e01b81523098810198909852935191985093969395939492909116926370a08231926024808301939192829003018186803b15801561141957600080fd5b505afa15801561142d573d6000803e3d6000fd5b505050506040513d602081101561144357600080fd5b505160028501549091504311801561145a57508015155b156114ba57600061146f85600201544361114e565b90506000611496600b5461090d8860010154610d0e6006548761177a90919063ffffffff16565b90506114b56114ae8461090d8464e8d4a5100061177a565b8590611715565b935050505b6114e2836001015461091364e8d4a5100061090d86886000015461177a90919063ffffffff16565b979650505050505050565b6188b881565b60065481565b601481565b6002546001600160a01b031681565b60006008838154811061151c57fe5b6000918252602080832086845260098252604080852033865290925292206004909102909101915061154d84610c0a565b600061157b826001015461091364e8d4a5100061090d8760030154876000015461177a90919063ffffffff16565b825490915061158a9085611715565b80835560038401546115a79164e8d4a510009161090d919061177a565b600183015580156115bc576115bc3382611857565b82546115d3906001600160a01b0316333087611b4a565b604080518581529051869133917f90890809c654f11d6e72a28fa60149770a0d11ec6c92319d6ceb2bb0a4ea1a159181900360200190a35050505050565b62030d4081565b600281565b611625611776565b6000546001600160a01b03908116911614611675576040805162461bcd60e51b81526020600482018190526024820152600080516020611f5c833981519152604482015290519081900360640190fd5b6001600160a01b0381166116ba5760405162461bcd60e51b8152600401808060200182810382526026815260200180611f156026913960400191505060405180910390fd5b600080546040516001600160a01b03808516939216917f8be0079c531659141344cd1fd0a4f28419497f9722a3daafe3b4186f6b6457e091a3600080546001600160a01b0319166001600160a01b0392909216919091179055565b60008282018381101561176f576040805162461bcd60e51b815260206004820152601b60248201527f536166654d6174683a206164646974696f6e206f766572666c6f770000000000604482015290519081900360640190fd5b9392505050565b3390565b60008261178957506000611291565b8282028284828161179657fe5b041461176f5760405162461bcd60e51b8152600401808060200182810382526021815260200180611f3b6021913960400191505060405180910390fd5b600061176f83836040518060400160405280601a81526020017f536166654d6174683a206469766973696f6e206279207a65726f000000000000815250611baa565b600061176f83836040518060400160405280601e81526020017f536166654d6174683a207375627472616374696f6e206f766572666c6f770000815250611c4c565b600154604080516370a0823160e01b815230600482015290516000926001600160a01b0316916370a08231916024808301926020929190829003018186803b1580156118a257600080fd5b505afa1580156118b6573d6000803e3d6000fd5b505050506040513d60208110156118cc57600080fd5b5051905080821115611960576001546040805163a9059cbb60e01b81526001600160a01b038681166004830152602482018590529151919092169163a9059cbb9160448083019260209291908290030181600087803b15801561192e57600080fd5b505af1158015611942573d6000803e3d6000fd5b505050506040513d602081101561195857600080fd5b506119e09050565b6001546040805163a9059cbb60e01b81526001600160a01b038681166004830152602482018690529151919092169163a9059cbb9160448083019260209291908290030181600087803b1580156119b657600080fd5b505af11580156119ca573d6000803e3d6000fd5b505050506040513d602081101561137557600080fd5b505050565b604080516001600160a01b038416602482015260448082018490528251808303909101815260649091019091526020810180516001600160e01b031663a9059cbb60e01b1790526119e0908490611ca6565b801580611abd575060408051636eb1769f60e11b81523060048201526001600160a01b03848116602483015291519185169163dd62ed3e91604480820192602092909190829003018186803b158015611a8f57600080fd5b505afa158015611aa3573d6000803e3d6000fd5b505050506040513d6020811015611ab957600080fd5b5051155b611af85760405162461bcd60e51b8152600401808060200182810382526036815260200180611fa66036913960400191505060405180910390fd5b604080516001600160a01b038416602482015260448082018490528251808303909101815260649091019091526020810180516001600160e01b031663095ea7b360e01b1790526119e0908490611ca6565b604080516001600160a01b0380861660248301528416604482015260648082018490528251808303909101815260849091019091526020810180516001600160e01b03166323b872dd60e01b179052611ba4908590611ca6565b50505050565b60008183611c365760405162461bcd60e51b81526004018080602001828103825283818151815260200191508051906020019080838360005b83811015611bfb578181015183820152602001611be3565b50505050905090810190601f168015611c285780820380516001836020036101000a031916815260200191505b509250505060405180910390fd5b506000838581611c4257fe5b0495945050505050565b60008184841115611c9e5760405162461bcd60e51b8152602060048201818152835160248401528351909283926044909101919085019080838360008315611bfb578181015183820152602001611be3565b505050900390565b6060611cfb826040518060400160405280602081526020017f5361666545524332303a206c6f772d6c6576656c2063616c6c206661696c6564815250856001600160a01b0316611d579092919063ffffffff16565b8051909150156119e057808060200190516020811015611d1a57600080fd5b50516119e05760405162461bcd60e51b815260040180806020018281038252602a815260200180611f7c602a913960400191505060405180910390fd5b6060611d668484600085611d6e565b949350505050565b6060611d7985611edb565b611dca576040805162461bcd60e51b815260206004820152601d60248201527f416464726573733a2063616c6c20746f206e6f6e2d636f6e7472616374000000604482015290519081900360640190fd5b60006060866001600160a01b031685876040518082805190602001908083835b60208310611e095780518252601f199092019160209182019101611dea565b6001836020036101000a03801982511681845116808217855250505050505090500191505060006040518083038185875af1925050503d8060008114611e6b576040519150601f19603f3d011682016040523d82523d6000602084013e611e70565b606091505b50915091508115611e84579150611d669050565b805115611e945780518082602001fd5b60405162461bcd60e51b8152602060048201818152865160248401528651879391928392604401919085019080838360008315611bfb578181015183820152602001611be3565b6000813f7fc5d2460186f7233c927e7db2dcc703c0e500b653ca82273b7bfad8045d85a470818114801590611d6657505015159291505056fe4f776e61626c653a206e6577206f776e657220697320746865207a65726f2061646472657373536166654d6174683a206d756c7469706c69636174696f6e206f766572666c6f774f776e61626c653a2063616c6c6572206973206e6f7420746865206f776e65725361666545524332303a204552433230206f7065726174696f6e20646964206e6f7420737563636565645361666545524332303a20617070726f76652066726f6d206e6f6e2d7a65726f20746f206e6f6e2d7a65726f20616c6c6f77616e6365a264697066735822122027236aaff2fbc54be811f8bbc587fd323d369d7d6b279d2e3d5eb91044ce58c264736f6c634300060c0033",
  "immutableReferences": {},
  "source": "pragma solidity 0.6.12;\n\nimport \"@openzeppelin/contracts/token/ERC20/IERC20.sol\";\nimport \"@openzeppelin/contracts/token/ERC20/SafeERC20.sol\";\nimport \"@openzeppelin/contracts/utils/EnumerableSet.sol\";\nimport \"@openzeppelin/contracts/math/SafeMath.sol\";\nimport \"@openzeppelin/contracts/access/Ownable.sol\";\nimport \"./SakeToken.sol\";\n\ninterface IMigratorChef {\n    // Perform LP token migration from legacy UniswapV2 to SakeSwap.\n    // Take the current LP token address and return the new LP token address.\n    // Migrator should have full access to the caller's LP token.\n    // Return the new LP token address.\n    //\n    // XXX Migrator must have allowance access to UniswapV2 LP tokens.\n    // SakeSwap must mint EXACTLY the same amount of SakeSwap LP tokens or\n    // else something bad will happen. Traditional UniswapV2 does not\n    // do that so be careful!\n    function migrate(IERC20 token) external returns (IERC20);\n}\n\n// SakeMaster is the master of Sake. He can make Sake and he is a fair guy.\n//\n// Note that it's ownable and the owner wields tremendous power. The ownership\n// will be transferred to a governance smart contract once SAKE is sufficiently\n// distributed and the community can show to govern itself.\n//\n// Have fun reading it. Hopefully it's bug-free. God bless.\ncontract SakeMaster is Ownable {\n    using SafeMath for uint256;\n    using SafeERC20 for IERC20;\n\n    // Info of each user.\n    struct UserInfo {\n        uint256 amount; // How many LP tokens the user has provided.\n        uint256 rewardDebt; // Reward debt. See explanation below.\n        //\n        // We do some fancy math here. Basically, any point in time, the amount of SAKEs\n        // entitled to a user but is pending to be distributed is:\n        //\n        //   pending reward = (user.amount * pool.accSakePerShare) - user.rewardDebt\n        //\n        // Whenever a user deposits or withdraws LP tokens to a pool. Here's what happens:\n        //   1. The pool's `accSakePerShare` (and `lastRewardBlock`) gets updated.\n        //   2. User receives the pending reward sent to his/her address.\n        //   3. User's `amount` gets updated.\n        //   4. User's `rewardDebt` gets updated.\n    }\n\n    // Info of each pool.\n    struct PoolInfo {\n        IERC20 lpToken; // Address of LP token contract.\n        uint256 allocPoint; // How many allocation points assigned to this pool. SAKEs to distribute per block.\n        uint256 lastRewardBlock; // Last block number that SAKEs distribution occurs.\n        uint256 accSakePerShare; // Accumulated SAKEs per share, times 1e12. See below.\n    }\n\n    // The SAKE TOKEN!\n    SakeToken public sake;\n    // Dev address.\n    address public devaddr;\n    // Block number when beta test period ends.\n    uint256 public betaTestEndBlock;\n    // Block number when bonus SAKE period ends.\n    uint256 public bonusEndBlock;\n    // Block number when mint SAKE period ends.\n    uint256 public mintEndBlock;\n    // SAKE tokens created per block.\n    uint256 public sakePerBlock;\n    // Bonus muliplier for 5~20 days sake makers.\n    uint256 public constant BONUSONE_MULTIPLIER = 20;\n    // Bonus muliplier for 20~35 sake makers.\n    uint256 public constant BONUSTWO_MULTIPLIER = 2;\n    // beta test block num,about 5 days.\n    uint256 public constant BETATEST_BLOCKNUM = 35000;\n    // Bonus block num,about 15 days.\n    uint256 public constant BONUS_BLOCKNUM = 100000;\n    // mint end block num,about 30 days.\n    uint256 public constant MINTEND_BLOCKNUM = 200000;\n    // The migrator contract. It has a lot of power. Can only be set through governance (owner).\n    IMigratorChef public migrator;\n\n    // Info of each pool.\n    PoolInfo[] public poolInfo;\n    // Info of each user that stakes LP tokens.\n    mapping(uint256 => mapping(address => UserInfo)) public userInfo;\n    // Record whether the pair has been added.\n    mapping(address => uint256) public lpTokenPID;\n    // Total allocation poitns. Must be the sum of all allocation points in all pools.\n    uint256 public totalAllocPoint = 0;\n    // The block number when SAKE mining starts.\n    uint256 public startBlock;\n\n    event Deposit(address indexed user, uint256 indexed pid, uint256 amount);\n    event Withdraw(address indexed user, uint256 indexed pid, uint256 amount);\n    event EmergencyWithdraw(\n        address indexed user,\n        uint256 indexed pid,\n        uint256 amount\n    );\n\n    constructor(\n        SakeToken _sake,\n        address _devaddr,\n        uint256 _sakePerBlock,\n        uint256 _startBlock\n    ) public {\n        sake = _sake;\n        devaddr = _devaddr;\n        sakePerBlock = _sakePerBlock;\n        startBlock = _startBlock;\n        betaTestEndBlock = startBlock.add(BETATEST_BLOCKNUM);\n        bonusEndBlock = startBlock.add(BONUS_BLOCKNUM).add(BETATEST_BLOCKNUM);\n        mintEndBlock = startBlock.add(MINTEND_BLOCKNUM).add(BETATEST_BLOCKNUM);\n    }\n\n    function poolLength() external view returns (uint256) {\n        return poolInfo.length;\n    }\n\n    // Add a new lp to the pool. Can only be called by the owner.\n    // XXX DO NOT add the same LP token more than once. Rewards will be messed up if you do.\n    function add(uint256 _allocPoint, IERC20 _lpToken, bool _withUpdate) public onlyOwner {\n        if (_withUpdate) {\n            massUpdatePools();\n        }\n        require(lpTokenPID[address(_lpToken)] == 0, \"SakeMaster:duplicate add.\");\n        uint256 lastRewardBlock = block.number > startBlock ? block.number : startBlock;\n        totalAllocPoint = totalAllocPoint.add(_allocPoint);\n        poolInfo.push(\n            PoolInfo({\n                lpToken: _lpToken,\n                allocPoint: _allocPoint,\n                lastRewardBlock: lastRewardBlock,\n                accSakePerShare: 0\n            })\n        );\n        lpTokenPID[address(_lpToken)] = poolInfo.length;\n    }\n\n    // Update the given pool's SAKE allocation point. Can only be called by the owner.\n    function set(uint256 _pid, uint256 _allocPoint, bool _withUpdate) public onlyOwner {\n        if (_withUpdate) {\n            massUpdatePools();\n        }\n        totalAllocPoint = totalAllocPoint.sub(poolInfo[_pid].allocPoint).add(_allocPoint);\n        poolInfo[_pid].allocPoint = _allocPoint;\n    }\n\n    // Set the migrator contract. Can only be called by the owner.\n    function setMigrator(IMigratorChef _migrator) public onlyOwner {\n        migrator = _migrator;\n    }\n\n    // Handover the saketoken mintage right.\n    function handoverSakeMintage(address newOwner) public onlyOwner {\n        sake.transferOwnership(newOwner);\n    }\n\n    // Migrate lp token to another lp contract. Can be called by anyone. We trust that migrator contract is good.\n    function migrate(uint256 _pid) public {\n        require(address(migrator) != address(0), \"migrate: no migrator\");\n        PoolInfo storage pool = poolInfo[_pid];\n        IERC20 lpToken = pool.lpToken;\n        uint256 bal = lpToken.balanceOf(address(this));\n        lpToken.safeApprove(address(migrator), bal);\n        IERC20 newLpToken = migrator.migrate(lpToken);\n        require(bal == newLpToken.balanceOf(address(this)), \"migrate: bad\");\n        pool.lpToken = newLpToken;\n    }\n\n    // Return reward multiplier over the given _from to _to block.\n    function getMultiplier(uint256 _from, uint256 _to) public view returns (uint256) {\n        uint256 _toFinal = _to > mintEndBlock ? mintEndBlock : _to;\n        if (_toFinal <= betaTestEndBlock) {\n             return _toFinal.sub(_from);\n        }else if (_from >= mintEndBlock) {\n            return 0;\n        } else if (_toFinal <= bonusEndBlock) {\n            if (_from < betaTestEndBlock) {\n                return betaTestEndBlock.sub(_from).add(_toFinal.sub(betaTestEndBlock).mul(BONUSONE_MULTIPLIER));\n            } else {\n                return _toFinal.sub(_from).mul(BONUSONE_MULTIPLIER);\n            }\n        } else {\n            if (_from < betaTestEndBlock) {\n                return betaTestEndBlock.sub(_from).add(bonusEndBlock.sub(betaTestEndBlock).mul(BONUSONE_MULTIPLIER)).add(\n                    (_toFinal.sub(bonusEndBlock).mul(BONUSTWO_MULTIPLIER)));\n            } else if (betaTestEndBlock <= _from && _from < bonusEndBlock) {\n                return bonusEndBlock.sub(_from).mul(BONUSONE_MULTIPLIER).add(_toFinal.sub(bonusEndBlock).mul(BONUSTWO_MULTIPLIER));\n            } else {\n                return _toFinal.sub(_from).mul(BONUSTWO_MULTIPLIER);\n            }\n        } \n    }\n\n    // View function to see pending SAKEs on frontend.\n    function pendingSake(uint256 _pid, address _user) external view returns (uint256) {\n        PoolInfo storage pool = poolInfo[_pid];\n        UserInfo storage user = userInfo[_pid][_user];\n        uint256 accSakePerShare = pool.accSakePerShare;\n        uint256 lpSupply = pool.lpToken.balanceOf(address(this));\n        if (block.number > pool.lastRewardBlock && lpSupply != 0) {\n            uint256 multiplier = getMultiplier(pool.lastRewardBlock, block.number);\n            uint256 sakeReward = multiplier.mul(sakePerBlock).mul(pool.allocPoint).div(totalAllocPoint);\n            accSakePerShare = accSakePerShare.add(sakeReward.mul(1e12).div(lpSupply));\n        }\n        return user.amount.mul(accSakePerShare).div(1e12).sub(user.rewardDebt);\n    }\n\n    // Update reward vairables for all pools. Be careful of gas spending!\n    function massUpdatePools() public {\n        uint256 length = poolInfo.length;\n        for (uint256 pid = 0; pid < length; ++pid) {\n            updatePool(pid);\n        }\n    }\n\n    // Update reward variables of the given pool to be up-to-date.\n    function updatePool(uint256 _pid) public {\n        PoolInfo storage pool = poolInfo[_pid];\n        if (block.number <= pool.lastRewardBlock) {\n            return;\n        }\n        uint256 lpSupply = pool.lpToken.balanceOf(address(this));\n        if (lpSupply == 0) {\n            pool.lastRewardBlock = block.number;\n            return;\n        }\n        uint256 multiplier = getMultiplier(pool.lastRewardBlock, block.number);\n        if (multiplier == 0) {\n            pool.lastRewardBlock = block.number;\n            return;\n        }\n        uint256 sakeReward = multiplier.mul(sakePerBlock).mul(pool.allocPoint).div(totalAllocPoint);\n        sake.mint(devaddr, sakeReward.div(15));\n        sake.mint(address(this), sakeReward);\n        pool.accSakePerShare = pool.accSakePerShare.add(sakeReward.mul(1e12).div(lpSupply));\n        pool.lastRewardBlock = block.number;\n    }\n\n    // Deposit LP tokens to SakeMaster for SAKE allocation.\n    function deposit(uint256 _pid, uint256 _amount) public {\n        PoolInfo storage pool = poolInfo[_pid];\n        UserInfo storage user = userInfo[_pid][msg.sender];\n        updatePool(_pid);\n        uint256 pending = user.amount.mul(pool.accSakePerShare).div(1e12).sub(user.rewardDebt);\n        user.amount = user.amount.add(_amount);\n        user.rewardDebt = user.amount.mul(pool.accSakePerShare).div(1e12);\n        if (pending > 0) safeSakeTransfer(msg.sender, pending);\n        pool.lpToken.safeTransferFrom(address(msg.sender), address(this), _amount);\n        emit Deposit(msg.sender, _pid, _amount);\n    }\n\n    // Withdraw LP tokens from SakeMaster.\n    function withdraw(uint256 _pid, uint256 _amount) public {\n        PoolInfo storage pool = poolInfo[_pid];\n        UserInfo storage user = userInfo[_pid][msg.sender];\n        require(user.amount >= _amount, \"withdraw: not good\");\n        updatePool(_pid);\n        uint256 pending = user.amount.mul(pool.accSakePerShare).div(1e12).sub(user.rewardDebt);\n        user.amount = user.amount.sub(_amount);\n        user.rewardDebt = user.amount.mul(pool.accSakePerShare).div(1e12);\n        safeSakeTransfer(msg.sender, pending);\n        pool.lpToken.safeTransfer(address(msg.sender), _amount);\n        emit Withdraw(msg.sender, _pid, _amount);\n    }\n\n    // Withdraw without caring about rewards. EMERGENCY ONLY.\n    function emergencyWithdraw(uint256 _pid) public {\n        PoolInfo storage pool = poolInfo[_pid];\n        UserInfo storage user = userInfo[_pid][msg.sender];\n        require(user.amount > 0, \"emergencyWithdraw: not good\");\n        uint256 _amount = user.amount;\n        user.amount = 0;\n        user.rewardDebt = 0;\n        pool.lpToken.safeTransfer(address(msg.sender), _amount);\n        emit EmergencyWithdraw(msg.sender, _pid, _amount);\n    }\n\n    // Safe sake transfer function, just in case if rounding error causes pool to not have enough SAKEs.\n    function safeSakeTransfer(address _to, uint256 _amount) internal {\n        uint256 sakeBal = sake.balanceOf(address(this));\n        if (_amount > sakeBal) {\n            sake.transfer(_to, sakeBal);\n        } else {\n            sake.transfer(_to, _amount);\n        }\n    }\n\n    // Update dev address by the previous dev.\n    function dev(address _devaddr) public {\n        require(msg.sender == devaddr, \"dev: wut?\");\n        devaddr = _devaddr;\n    }\n}\n",
  "sourcePath": "F:/vscodeproject/sakeswap-protocol/contracts/SakeMaster.sol",
  "compiler": {
    "name": "solc",
    "version": "0.6.12+commit.27d51765.Emscripten.clang"
  },
  "schemaVersion": "3.2.4",
  "updatedAt": "2020-09-08T08:12:40.644Z",
  "networkType": "ethereum",
  "devdoc": {
    "kind": "dev",
    "methods": {
      "owner()": {
        "details": "Returns the address of the current owner."
      },
      "renounceOwnership()": {
        "details": "Leaves the contract without owner. It will not be possible to call `onlyOwner` functions anymore. Can only be called by the current owner. NOTE: Renouncing ownership will leave the contract without an owner, thereby removing any functionality that is only available to the owner."
      },
      "transferOwnership(address)": {
        "details": "Transfers ownership of the contract to a new account (`newOwner`). Can only be called by the current owner."
      }
    },
    "version": 1
  },
  "userdoc": {
    "kind": "user",
    "methods": {},
    "version": 1
  }
}